{
  "_format": "hh-sol-artifact-1",
  "contractName": "chadStaking",
  "sourceName": "contracts/staking.sol",
  "abi": [
    {
      "inputs": [
        {
          "internalType": "address",
          "name": "_stakingToken",
          "type": "address"
        },
        {
          "internalType": "address",
          "name": "_rewardsToken",
          "type": "address"
        },
        {
          "internalType": "address",
          "name": "_nft",
          "type": "address"
        },
        {
          "internalType": "address",
          "name": "administratorAddress",
          "type": "address"
        },
        {
          "internalType": "address",
          "name": "_feeReceiver",
          "type": "address"
        }
      ],
      "stateMutability": "nonpayable",
      "type": "constructor"
    },
    {
      "anonymous": false,
      "inputs": [
        {
          "indexed": true,
          "internalType": "address",
          "name": "previousOwner",
          "type": "address"
        },
        {
          "indexed": true,
          "internalType": "address",
          "name": "newOwner",
          "type": "address"
        }
      ],
      "name": "OwnershipTransferred",
      "type": "event"
    },
    {
      "anonymous": false,
      "inputs": [
        {
          "indexed": false,
          "internalType": "string",
          "name": "Reason",
          "type": "string"
        }
      ],
      "name": "messageEvent",
      "type": "event"
    },
    {
      "anonymous": false,
      "inputs": [
        {
          "indexed": false,
          "internalType": "uint256",
          "name": "timeOfCreation",
          "type": "uint256"
        },
        {
          "indexed": false,
          "internalType": "string",
          "name": "poolName",
          "type": "string"
        },
        {
          "indexed": false,
          "internalType": "uint256",
          "name": "poolID",
          "type": "uint256"
        }
      ],
      "name": "poolCreated",
      "type": "event"
    },
    {
      "anonymous": false,
      "inputs": [
        {
          "indexed": false,
          "internalType": "uint256",
          "name": "timeOfChange",
          "type": "uint256"
        },
        {
          "indexed": false,
          "internalType": "bool",
          "name": "isPoolPaused",
          "type": "bool"
        }
      ],
      "name": "poolState",
      "type": "event"
    },
    {
      "anonymous": false,
      "inputs": [
        {
          "indexed": false,
          "internalType": "address",
          "name": "stakeHolder",
          "type": "address"
        },
        {
          "indexed": false,
          "internalType": "uint256",
          "name": "timeOfClaim",
          "type": "uint256"
        },
        {
          "indexed": false,
          "internalType": "uint256",
          "name": "amountUnstaked",
          "type": "uint256"
        },
        {
          "indexed": false,
          "internalType": "uint256",
          "name": "rewardEarned",
          "type": "uint256"
        }
      ],
      "name": "rewardClaimed",
      "type": "event"
    },
    {
      "anonymous": false,
      "inputs": [
        {
          "indexed": false,
          "internalType": "address",
          "name": "stakeHolder",
          "type": "address"
        },
        {
          "indexed": false,
          "internalType": "uint256",
          "name": "timeOfStake",
          "type": "uint256"
        },
        {
          "indexed": false,
          "internalType": "uint256",
          "name": "amountStaked",
          "type": "uint256"
        }
      ],
      "name": "userStaked",
      "type": "event"
    },
    {
      "inputs": [
        {
          "internalType": "uint256",
          "name": "_poolID",
          "type": "uint256"
        },
        {
          "internalType": "uint256",
          "name": "_newAPY",
          "type": "uint256"
        }
      ],
      "name": "adjustAPY",
      "outputs": [],
      "stateMutability": "nonpayable",
      "type": "function"
    },
    {
      "inputs": [
        {
          "internalType": "uint256",
          "name": "_poolID",
          "type": "uint256"
        },
        {
          "internalType": "uint256",
          "name": "_extraAPY",
          "type": "uint256"
        }
      ],
      "name": "adjustExtraAPY",
      "outputs": [],
      "stateMutability": "nonpayable",
      "type": "function"
    },
    {
      "inputs": [
        {
          "internalType": "address",
          "name": "userAddress",
          "type": "address"
        },
        {
          "internalType": "uint256",
          "name": "poolID",
          "type": "uint256"
        }
      ],
      "name": "calculateUserRewards",
      "outputs": [
        {
          "internalType": "uint256",
          "name": "",
          "type": "uint256"
        }
      ],
      "stateMutability": "view",
      "type": "function"
    },
    {
      "inputs": [
        {
          "internalType": "uint256",
          "name": "_poolID",
          "type": "uint256"
        }
      ],
      "name": "claimReward",
      "outputs": [],
      "stateMutability": "nonpayable",
      "type": "function"
    },
    {
      "inputs": [
        {
          "internalType": "string",
          "name": "_poolName",
          "type": "string"
        },
        {
          "internalType": "uint256",
          "name": "_APY",
          "type": "uint256"
        },
        {
          "internalType": "uint256",
          "name": "_extraAPY",
          "type": "uint256"
        },
        {
          "internalType": "uint256",
          "name": "_minimumDeposit",
          "type": "uint256"
        },
        {
          "internalType": "uint256",
          "name": "_lockDuration",
          "type": "uint256"
        }
      ],
      "name": "createPool",
      "outputs": [
        {
          "internalType": "uint256",
          "name": "_createdPoolIndex",
          "type": "uint256"
        }
      ],
      "stateMutability": "nonpayable",
      "type": "function"
    },
    {
      "inputs": [
        {
          "internalType": "uint256",
          "name": "_poolID",
          "type": "uint256"
        }
      ],
      "name": "determineLoss",
      "outputs": [
        {
          "internalType": "uint256",
          "name": "_loss",
          "type": "uint256"
        },
        {
          "internalType": "uint256",
          "name": "_balance",
          "type": "uint256"
        }
      ],
      "stateMutability": "view",
      "type": "function"
    },
    {
      "inputs": [],
      "name": "feeReceiver",
      "outputs": [
        {
          "internalType": "address",
          "name": "",
          "type": "address"
        }
      ],
      "stateMutability": "view",
      "type": "function"
    },
    {
      "inputs": [
        {
          "internalType": "uint256",
          "name": "_poolID",
          "type": "uint256"
        }
      ],
      "name": "getAPY",
      "outputs": [
        {
          "internalType": "uint256",
          "name": "",
          "type": "uint256"
        }
      ],
      "stateMutability": "view",
      "type": "function"
    },
    {
      "inputs": [
        {
          "internalType": "uint256",
          "name": "poolID",
          "type": "uint256"
        },
        {
          "internalType": "address",
          "name": "userAddress",
          "type": "address"
        }
      ],
      "name": "getLastStakeDate",
      "outputs": [
        {
          "internalType": "uint256",
          "name": "",
          "type": "uint256"
        }
      ],
      "stateMutability": "view",
      "type": "function"
    },
    {
      "inputs": [
        {
          "internalType": "uint256",
          "name": "_poolID",
          "type": "uint256"
        }
      ],
      "name": "getMinimumDeposit",
      "outputs": [
        {
          "internalType": "uint256",
          "name": "_minimumDeposit",
          "type": "uint256"
        }
      ],
      "stateMutability": "view",
      "type": "function"
    },
    {
      "inputs": [
        {
          "internalType": "uint256",
          "name": "_poolID",
          "type": "uint256"
        }
      ],
      "name": "getPoolState",
      "outputs": [
        {
          "internalType": "bool",
          "name": "_stakingIsPaused",
          "type": "bool"
        }
      ],
      "stateMutability": "view",
      "type": "function"
    },
    {
      "inputs": [],
      "name": "getRewardLeftInContract",
      "outputs": [
        {
          "internalType": "uint256",
          "name": "rewardsAvailable",
          "type": "uint256"
        }
      ],
      "stateMutability": "view",
      "type": "function"
    },
    {
      "inputs": [
        {
          "internalType": "uint256",
          "name": "_poolID",
          "type": "uint256"
        }
      ],
      "name": "getStakerCountPerPool",
      "outputs": [
        {
          "internalType": "uint256",
          "name": "",
          "type": "uint256"
        }
      ],
      "stateMutability": "view",
      "type": "function"
    },
    {
      "inputs": [],
      "name": "getTotalStakeHolderCount",
      "outputs": [
        {
          "internalType": "uint256",
          "name": "",
          "type": "uint256"
        }
      ],
      "stateMutability": "view",
      "type": "function"
    },
    {
      "inputs": [],
      "name": "getTotalStaked",
      "outputs": [
        {
          "internalType": "uint256",
          "name": "",
          "type": "uint256"
        }
      ],
      "stateMutability": "view",
      "type": "function"
    },
    {
      "inputs": [
        {
          "internalType": "uint256",
          "name": "poolID",
          "type": "uint256"
        },
        {
          "internalType": "address",
          "name": "userAddress",
          "type": "address"
        }
      ],
      "name": "getUserStakingBalance",
      "outputs": [
        {
          "internalType": "uint256",
          "name": "",
          "type": "uint256"
        }
      ],
      "stateMutability": "view",
      "type": "function"
    },
    {
      "inputs": [],
      "name": "nft",
      "outputs": [
        {
          "internalType": "contract IERC721",
          "name": "",
          "type": "address"
        }
      ],
      "stateMutability": "view",
      "type": "function"
    },
    {
      "inputs": [],
      "name": "owner",
      "outputs": [
        {
          "internalType": "address",
          "name": "",
          "type": "address"
        }
      ],
      "stateMutability": "view",
      "type": "function"
    },
    {
      "inputs": [
        {
          "internalType": "uint256",
          "name": "",
          "type": "uint256"
        }
      ],
      "name": "pool",
      "outputs": [
        {
          "internalType": "string",
          "name": "poolName",
          "type": "string"
        },
        {
          "internalType": "uint256",
          "name": "APY",
          "type": "uint256"
        },
        {
          "internalType": "uint256",
          "name": "extraAPY",
          "type": "uint256"
        },
        {
          "internalType": "uint256",
          "name": "lockDuration",
          "type": "uint256"
        },
        {
          "internalType": "uint256",
          "name": "minimumDeposit",
          "type": "uint256"
        },
        {
          "internalType": "uint256",
          "name": "totalStaked",
          "type": "uint256"
        },
        {
          "internalType": "bool",
          "name": "stakingIsPaused",
          "type": "bool"
        },
        {
          "internalType": "bool",
          "name": "poolIsInitialized",
          "type": "bool"
        },
        {
          "internalType": "uint256",
          "name": "stakersCount",
          "type": "uint256"
        }
      ],
      "stateMutability": "view",
      "type": "function"
    },
    {
      "inputs": [
        {
          "internalType": "uint256",
          "name": "",
          "type": "uint256"
        }
      ],
      "name": "poolIndexArray",
      "outputs": [
        {
          "internalType": "uint256",
          "name": "",
          "type": "uint256"
        }
      ],
      "stateMutability": "view",
      "type": "function"
    },
    {
      "inputs": [],
      "name": "renounceOwnership",
      "outputs": [],
      "stateMutability": "nonpayable",
      "type": "function"
    },
    {
      "inputs": [],
      "name": "rewardIntervalInSeconds",
      "outputs": [
        {
          "internalType": "uint256",
          "name": "",
          "type": "uint256"
        }
      ],
      "stateMutability": "view",
      "type": "function"
    },
    {
      "inputs": [],
      "name": "rewardsToken",
      "outputs": [
        {
          "internalType": "contract IERC20",
          "name": "",
          "type": "address"
        }
      ],
      "stateMutability": "view",
      "type": "function"
    },
    {
      "inputs": [
        {
          "internalType": "uint256",
          "name": "_poolID",
          "type": "uint256"
        },
        {
          "internalType": "uint256",
          "name": "_minimumDepositInWei",
          "type": "uint256"
        }
      ],
      "name": "setMinimumDeposit",
      "outputs": [],
      "stateMutability": "nonpayable",
      "type": "function"
    },
    {
      "inputs": [
        {
          "internalType": "uint256",
          "name": "_interval",
          "type": "uint256"
        }
      ],
      "name": "setRewardInterval",
      "outputs": [],
      "stateMutability": "nonpayable",
      "type": "function"
    },
    {
      "inputs": [
        {
          "internalType": "uint256",
          "name": "_amount",
          "type": "uint256"
        },
        {
          "internalType": "uint256",
          "name": "poolID",
          "type": "uint256"
        }
      ],
      "name": "stake",
      "outputs": [],
      "stateMutability": "payable",
      "type": "function"
    },
    {
      "inputs": [],
      "name": "stakingToken",
      "outputs": [
        {
          "internalType": "contract IERC20",
          "name": "",
          "type": "address"
        }
      ],
      "stateMutability": "view",
      "type": "function"
    },
    {
      "inputs": [
        {
          "internalType": "uint256",
          "name": "_poolID",
          "type": "uint256"
        }
      ],
      "name": "togglePausePool",
      "outputs": [],
      "stateMutability": "nonpayable",
      "type": "function"
    },
    {
      "inputs": [
        {
          "internalType": "address",
          "name": "newOwner",
          "type": "address"
        }
      ],
      "name": "transferOwnership",
      "outputs": [],
      "stateMutability": "nonpayable",
      "type": "function"
    }
  ],
  "bytecode": "0x60806040523480156200001157600080fd5b506040516200413f3803806200413f8339818101604052810190620000379190620002c0565b620000576200004b6200018a60201b60201c565b6200019260201b60201c565b84600260006101000a81548173ffffffffffffffffffffffffffffffffffffffff021916908373ffffffffffffffffffffffffffffffffffffffff16021790555083600160006101000a81548173ffffffffffffffffffffffffffffffffffffffff021916908373ffffffffffffffffffffffffffffffffffffffff16021790555082600360006101000a81548173ffffffffffffffffffffffffffffffffffffffff021916908373ffffffffffffffffffffffffffffffffffffffff1602179055506200012b826200019260201b60201c565b80600460006101000a81548173ffffffffffffffffffffffffffffffffffffffff021916908373ffffffffffffffffffffffffffffffffffffffff16021790555060006006819055506301e13380600881905550505050505062000348565b600033905090565b60008060009054906101000a900473ffffffffffffffffffffffffffffffffffffffff169050816000806101000a81548173ffffffffffffffffffffffffffffffffffffffff021916908373ffffffffffffffffffffffffffffffffffffffff1602179055508173ffffffffffffffffffffffffffffffffffffffff168173ffffffffffffffffffffffffffffffffffffffff167f8be0079c531659141344cd1fd0a4f28419497f9722a3daafe3b4186f6b6457e060405160405180910390a35050565b600080fd5b600073ffffffffffffffffffffffffffffffffffffffff82169050919050565b600062000288826200025b565b9050919050565b6200029a816200027b565b8114620002a657600080fd5b50565b600081519050620002ba816200028f565b92915050565b600080600080600060a08688031215620002df57620002de62000256565b5b6000620002ef88828901620002a9565b95505060206200030288828901620002a9565b94505060406200031588828901620002a9565b93505060606200032888828901620002a9565b92505060806200033b88828901620002a9565b9150509295509295909350565b613de780620003586000396000f3fe6080604052600436106101c25760003560e01c80638a41e5d7116100f7578063cff017ea11610095578063eeee849b11610064578063eeee849b14610670578063f2fde38b146106ad578063fe313112146106d6578063ffe84abd1461071b576101c2565b8063cff017ea146105b6578063d1af0c7d146105df578063e1a7c8231461060a578063e3e8421314610647576101c2565b8063ae169a50116100d1578063ae169a50146104e8578063ae9ffcc614610511578063b15975171461054e578063b3f006741461058b576101c2565b80638a41e5d7146104575780638da5cb5b14610494578063ad6e8932146104bf576101c2565b806364f45e551161016457806372f702f31161013e57806372f702f3146103965780637545f937146103c15780637a7ff0dd146103fe5780637b0472f01461043b576101c2565b806364f45e551461032957806370eb461814610354578063715018a61461037f576101c2565b80632d3c744b116101a05780632d3c744b1461026d57806347ccca02146102aa5780635227e278146102d557806355d67cb7146102fe576101c2565b8063021413f5146101c75780630917e776146102055780631c710fdb14610230575b600080fd5b3480156101d357600080fd5b506101ee60048036038101906101e99190612bb3565b610744565b6040516101fc929190612bef565b60405180910390f35b34801561021157600080fd5b5061021a610e41565b6040516102279190612c18565b60405180910390f35b34801561023c57600080fd5b5061025760048036038101906102529190612d79565b610e93565b6040516102649190612c18565b60405180910390f35b34801561027957600080fd5b50610294600480360381019061028f9190612bb3565b61106e565b6040516102a19190612c18565b60405180910390f35b3480156102b657600080fd5b506102bf61108e565b6040516102cc9190612e8f565b60405180910390f35b3480156102e157600080fd5b506102fc60048036038101906102f79190612eaa565b6110b4565b005b34801561030a57600080fd5b506103136110db565b6040516103209190612c18565b60405180910390f35b34801561033557600080fd5b5061033e61112d565b60405161034b9190612c18565b60405180910390f35b34801561036057600080fd5b50610369611133565b6040516103769190612c18565b60405180910390f35b34801561038b57600080fd5b506103946111f9565b005b3480156103a257600080fd5b506103ab61120d565b6040516103b89190612f0b565b60405180910390f35b3480156103cd57600080fd5b506103e860048036038101906103e39190612bb3565b611233565b6040516103f59190612c18565b60405180910390f35b34801561040a57600080fd5b5061042560048036038101906104209190612f64565b611253565b6040516104329190612c18565b60405180910390f35b61045560048036038101906104509190612eaa565b611433565b005b34801561046357600080fd5b5061047e60048036038101906104799190612fa4565b611a81565b60405161048b9190612c18565b60405180910390f35b3480156104a057600080fd5b506104a9611adf565b6040516104b69190612ff3565b60405180910390f35b3480156104cb57600080fd5b506104e660048036038101906104e19190612bb3565b611b08565b005b3480156104f457600080fd5b5061050f600480360381019061050a9190612bb3565b611bc1565b005b34801561051d57600080fd5b5061053860048036038101906105339190612fa4565b612731565b6040516105459190612c18565b60405180910390f35b34801561055a57600080fd5b5061057560048036038101906105709190612bb3565b61278f565b6040516105829190613029565b60405180910390f35b34801561059757600080fd5b506105a06127bc565b6040516105ad9190612ff3565b60405180910390f35b3480156105c257600080fd5b506105dd60048036038101906105d89190612eaa565b6127e2565b005b3480156105eb57600080fd5b506105f4612809565b6040516106019190612f0b565b60405180910390f35b34801561061657600080fd5b50610631600480360381019061062c9190612bb3565b61282f565b60405161063e9190612c18565b60405180910390f35b34801561065357600080fd5b5061066e60048036038101906106699190612bb3565b612853565b005b34801561067c57600080fd5b5061069760048036038101906106929190612bb3565b612865565b6040516106a49190612c18565b60405180910390f35b3480156106b957600080fd5b506106d460048036038101906106cf9190613044565b612885565b005b3480156106e257600080fd5b506106fd60048036038101906106f89190612bb3565b612908565b604051610712999897969594939291906130f0565b60405180910390f35b34801561072757600080fd5b50610742600480360381019061073d9190612eaa565b6129f8565b005b600080600083036109995760006005600085815260200190815260200160002060080160003373ffffffffffffffffffffffffffffffffffffffff1673ffffffffffffffffffffffffffffffffffffffff168152602001908152602001600020549050600081426107b591906131b3565b90506000605f9050600560008781526020019081526020016000206003015482101561092f5760005b60148110156109295762015180816107f691906131e7565b8311801561081d5750620151806001826108109190613229565b61081a91906131e7565b83105b15610916576000606482600561083391906131e7565b8461083e91906131b3565b600560008b815260200190815260200160002060060160003373ffffffffffffffffffffffffffffffffffffffff1673ffffffffffffffffffffffffffffffffffffffff1681526020019081526020016000205461089c91906131e7565b6108a6919061328c565b90508081600560008b815260200190815260200160002060060160003373ffffffffffffffffffffffffffffffffffffffff1673ffffffffffffffffffffffffffffffffffffffff1681526020019081526020016000205461090891906131b3565b965096505050505050610e3c565b8080610921906132bd565b9150506107de565b50610991565b60006005600088815260200190815260200160002060060160003373ffffffffffffffffffffffffffffffffffffffff1673ffffffffffffffffffffffffffffffffffffffff1681526020019081526020016000205494509450505050610e3c565b505050610e3b565b60018303610beb5760006005600085815260200190815260200160002060080160003373ffffffffffffffffffffffffffffffffffffffff1673ffffffffffffffffffffffffffffffffffffffff16815260200190815260200160002054905060008142610a0791906131b3565b90506000605a90506005600087815260200190815260200160002060030154821015610b815760005b600a811015610b7b576201518081610a4891906131e7565b83118015610a6f575062015180600182610a629190613229565b610a6c91906131e7565b83105b15610b68576000606482600a610a8591906131e7565b84610a9091906131b3565b600560008b815260200190815260200160002060060160003373ffffffffffffffffffffffffffffffffffffffff1673ffffffffffffffffffffffffffffffffffffffff16815260200190815260200160002054610aee91906131e7565b610af8919061328c565b90508081600560008b815260200190815260200160002060060160003373ffffffffffffffffffffffffffffffffffffffff1673ffffffffffffffffffffffffffffffffffffffff16815260200190815260200160002054610b5a91906131b3565b965096505050505050610e3c565b8080610b73906132bd565b915050610a30565b50610be3565b60006005600088815260200190815260200160002060060160003373ffffffffffffffffffffffffffffffffffffffff1673ffffffffffffffffffffffffffffffffffffffff1681526020019081526020016000205494509450505050610e3c565b505050610e3a565b60028303610e395760006005600085815260200190815260200160002060080160003373ffffffffffffffffffffffffffffffffffffffff1673ffffffffffffffffffffffffffffffffffffffff16815260200190815260200160002054905060008142610c5991906131b3565b90506000604b90506005600087815260200190815260200160002060030154821015610dd35760005b6004811015610dcd576201518081610c9a91906131e7565b83118015610cc1575062015180600182610cb49190613229565b610cbe91906131e7565b83105b15610dba5760006064826019610cd791906131e7565b84610ce291906131b3565b600560008b815260200190815260200160002060060160003373ffffffffffffffffffffffffffffffffffffffff1673ffffffffffffffffffffffffffffffffffffffff16815260200190815260200160002054610d4091906131e7565b610d4a919061328c565b90508081600560008b815260200190815260200160002060060160003373ffffffffffffffffffffffffffffffffffffffff1673ffffffffffffffffffffffffffffffffffffffff16815260200190815260200160002054610dac91906131b3565b965096505050505050610e3c565b8080610dc5906132bd565b915050610c82565b50610e35565b60006005600088815260200190815260200160002060060160003373ffffffffffffffffffffffffffffffffffffffff1673ffffffffffffffffffffffffffffffffffffffff1681526020019081526020016000205494509450505050610e3c565b5050505b5b5b5b915091565b60008060005b600780549050811015610e8b57600560008281526020019081526020016000206005015482610e769190613229565b91508080610e83906132bd565b915050610e47565b508091505090565b6000610e9d612a1f565b600085118015610eae57506103e885105b610eed576040517f08c379a0000000000000000000000000000000000000000000000000000000008152600401610ee490613377565b60405180910390fd5b856005600060065481526020019081526020016000206000019081610f129190613599565b50846005600060065481526020019081526020016000206001018190555083600560006006548152602001908152602001600020600201819055506201518082610f5c91906131e7565b6005600060065481526020019081526020016000206003018190555082600560006006548152602001908152602001600020600401819055506001600560006006548152602001908152602001600020600b0160016101000a81548160ff021916908315150217905550600760065490806001815401808255809150506001900390600052602060002001600090919091909150556001600660008282546110049190613229565b925050819055507fdfecf1fc9122c3b3f25ee891eedc4d9c2f7a2e389de06ee26b1b0d2bf575450c4287600160065461103d91906131b3565b60405161104c9392919061366b565b60405180910390a1600160065461106391906131b3565b905095945050505050565b600060056000838152602001908152602001600020600c01549050919050565b600360009054906101000a900473ffffffffffffffffffffffffffffffffffffffff1681565b6110bc612a1f565b8060056000848152602001908152602001600020600201819055505050565b60008060005b6007805490508110156111255760056000828152602001908152602001600020600c0154826111109190613229565b9150808061111d906132bd565b9150506110e1565b508091505090565b60085481565b600080600160009054906101000a900473ffffffffffffffffffffffffffffffffffffffff1673ffffffffffffffffffffffffffffffffffffffff166370a08231306040518263ffffffff1660e01b81526004016111919190612ff3565b602060405180830381865afa1580156111ae573d6000803e3d6000fd5b505050506040513d601f19601f820116820180604052508101906111d291906136be565b905060006111de610e41565b9050600081836111ee91906131b3565b905080935050505090565b611201612a1f565b61120b6000612a9d565b565b600260009054906101000a900473ffffffffffffffffffffffffffffffffffffffff1681565b600060056000838152602001908152602001600020600401549050919050565b6000600115156005600084815260200190815260200160002060070160008573ffffffffffffffffffffffffffffffffffffffff1673ffffffffffffffffffffffffffffffffffffffff16815260200190815260200160002060009054906101000a900460ff161515036114285760006005600084815260200190815260200160002060080160008573ffffffffffffffffffffffffffffffffffffffff1673ffffffffffffffffffffffffffffffffffffffff1681526020019081526020016000205490506000814261132791906131b3565b905060006005600086815260200190815260200160002060060160008773ffffffffffffffffffffffffffffffffffffffff1673ffffffffffffffffffffffffffffffffffffffff1681526020019081526020016000205490506000620f424082611392919061328c565b905060006008546064856113a691906131e7565b6113b0919061328c565b60056000898152602001908152602001600020600a0160003373ffffffffffffffffffffffffffffffffffffffff1673ffffffffffffffffffffffffffffffffffffffff168152602001908152602001600020548361140f91906131e7565b61141991906131e7565b9050809550505050505061142d565b600090505b92915050565b6001151560056000838152602001908152602001600020600b0160019054906101000a900460ff1615151461149d576040517f08c379a000000000000000000000000000000000000000000000000000000000815260040161149490613737565b60405180910390fd5b6000151560056000838152602001908152602001600020600b0160009054906101000a900460ff16151514611507576040517f08c379a00000000000000000000000000000000000000000000000000000000081526004016114fe906137c9565b60405180910390fd5b600015156005600083815260200190815260200160002060070160003373ffffffffffffffffffffffffffffffffffffffff1673ffffffffffffffffffffffffffffffffffffffff16815260200190815260200160002060009054906101000a900460ff161515146115ae576040517f08c379a00000000000000000000000000000000000000000000000000000000081526004016115a59061385b565b60405180910390fd5b6005600082815260200190815260200160002060040154821015611607576040517f08c379a00000000000000000000000000000000000000000000000000000000081526004016115fe906138ed565b60405180910390fd5b8160056000838152602001908152602001600020600501600082825461162d9190613229565b92505081905550816005600083815260200190815260200160002060060160003373ffffffffffffffffffffffffffffffffffffffff1673ffffffffffffffffffffffffffffffffffffffff16815260200190815260200160002060008282546116979190613229565b925050819055506000600360009054906101000a900473ffffffffffffffffffffffffffffffffffffffff1673ffffffffffffffffffffffffffffffffffffffff166370a08231336040518263ffffffff1660e01b81526004016116fb9190612ff3565b602060405180830381865afa158015611718573d6000803e3d6000fd5b505050506040513d601f19601f8201168201806040525081019061173c91906136be565b9050600081036117b957600560008381526020019081526020016000206001015460056000848152602001908152602001600020600a0160003373ffffffffffffffffffffffffffffffffffffffff1673ffffffffffffffffffffffffffffffffffffffff16815260200190815260200160002081905550611853565b600081111561185257600560008381526020019081526020016000206002015460056000848152602001908152602001600020600101546117fa9190613229565b60056000848152602001908152602001600020600a0160003373ffffffffffffffffffffffffffffffffffffffff1673ffffffffffffffffffffffffffffffffffffffff168152602001908152602001600020819055505b5b600260009054906101000a900473ffffffffffffffffffffffffffffffffffffffff1673ffffffffffffffffffffffffffffffffffffffff166323b872dd3330866040518463ffffffff1660e01b81526004016118b29392919061390d565b6020604051808303816000875af11580156118d1573d6000803e3d6000fd5b505050506040513d601f19601f820116820180604052508101906118f59190613970565b50600160056000848152602001908152602001600020600c01600082825461191d9190613229565b9250508190555060016005600084815260200190815260200160002060070160003373ffffffffffffffffffffffffffffffffffffffff1673ffffffffffffffffffffffffffffffffffffffff16815260200190815260200160002060006101000a81548160ff021916908315150217905550426005600084815260200190815260200160002060080160003373ffffffffffffffffffffffffffffffffffffffff1673ffffffffffffffffffffffffffffffffffffffff1681526020019081526020016000208190555060006005600084815260200190815260200160002060090160003373ffffffffffffffffffffffffffffffffffffffff1673ffffffffffffffffffffffffffffffffffffffff168152602001908152602001600020819055507f1835b101ea7447f2acc185724289ae4febae3bfcd360c35fe5e92f998d158e64334285604051611a749392919061399d565b60405180910390a1505050565b60006005600084815260200190815260200160002060080160008373ffffffffffffffffffffffffffffffffffffffff1673ffffffffffffffffffffffffffffffffffffffff16815260200190815260200160002054905092915050565b60008060009054906101000a900473ffffffffffffffffffffffffffffffffffffffff16905090565b611b10612a1f565b60056000828152602001908152602001600020600b0160009054906101000a900460ff161560056000838152602001908152602001600020600b0160006101000a81548160ff0219169083151502179055507fe2dc77e9c5a6309793ae1aed6da3ffa5ed77f54280d597b9eaf2bb538a8ae23e4260056000848152602001908152602001600020600b0160009054906101000a900460ff16604051611bb69291906139d4565b60405180910390a150565b600115156005600083815260200190815260200160002060070160003373ffffffffffffffffffffffffffffffffffffffff1673ffffffffffffffffffffffffffffffffffffffff16815260200190815260200160002060009054906101000a900460ff16151514611c68576040517f08c379a0000000000000000000000000000000000000000000000000000000008152600401611c5f90613a6f565b60405180910390fd5b60006005600083815260200190815260200160002060080160003373ffffffffffffffffffffffffffffffffffffffff1673ffffffffffffffffffffffffffffffffffffffff16815260200190815260200160002054905060008142611cce91906131b3565b905060056000848152602001908152602001600020600301548111156121955760006005600085815260200190815260200160002060060160003373ffffffffffffffffffffffffffffffffffffffff1673ffffffffffffffffffffffffffffffffffffffff1681526020019081526020016000205490506000611d523386611253565b905060008111611d97576040517f08c379a0000000000000000000000000000000000000000000000000000000008152600401611d8e90613b01565b60405180910390fd5b6000600160009054906101000a900473ffffffffffffffffffffffffffffffffffffffff1673ffffffffffffffffffffffffffffffffffffffff166370a08231306040518263ffffffff1660e01b8152600401611df49190612ff3565b602060405180830381865afa158015611e11573d6000803e3d6000fd5b505050506040513d601f19601f82011682018060405250810190611e3591906136be565b90506000611e41610e41565b905060008183611e5191906131b3565b905083811015611e94578093507f9fd40b777a67006201b62c0025adca7fed13f4f97a8c97e859b02a025adad78f604051611e8b90613b93565b60405180910390a15b600160009054906101000a900473ffffffffffffffffffffffffffffffffffffffff1673ffffffffffffffffffffffffffffffffffffffff1663a9059cbb33866040518363ffffffff1660e01b8152600401611ef1929190613bb3565b6020604051808303816000875af1158015611f10573d6000803e3d6000fd5b505050506040513d601f19601f82011682018060405250810190611f349190613970565b506000600560008a815260200190815260200160002060060160003373ffffffffffffffffffffffffffffffffffffffff1673ffffffffffffffffffffffffffffffffffffffff16815260200190815260200160002081905550600260009054906101000a900473ffffffffffffffffffffffffffffffffffffffff1673ffffffffffffffffffffffffffffffffffffffff1663a9059cbb33876040518363ffffffff1660e01b8152600401611feb929190613bb3565b6020604051808303816000875af115801561200a573d6000803e3d6000fd5b505050506040513d601f19601f8201168201806040525081019061202e9190613970565b5084600560008a8152602001908152602001600020600501600082825461205591906131b3565b925050819055506000600560008a815260200190815260200160002060070160003373ffffffffffffffffffffffffffffffffffffffff1673ffffffffffffffffffffffffffffffffffffffff16815260200190815260200160002060006101000a81548160ff0219169083151502179055506001600560008a8152602001908152602001600020600c0160008282546120ef91906131b3565b9250508190555042600560008a815260200190815260200160002060090160003373ffffffffffffffffffffffffffffffffffffffff1673ffffffffffffffffffffffffffffffffffffffff168152602001908152602001600020819055507fc2af4912016acefa1911d5321e5f44658214ece74741a1bd267525dec7f309ae334287876040516121839493929190613bdc565b60405180910390a1505050505061272c565b600560008481526020019081526020016000206003015481101561272b576000806121bf85610744565b9150915060006121cf3387611253565b905060008111612214576040517f08c379a000000000000000000000000000000000000000000000000000000000815260040161220b90613b01565b60405180910390fd5b6000600160009054906101000a900473ffffffffffffffffffffffffffffffffffffffff1673ffffffffffffffffffffffffffffffffffffffff166370a08231306040518263ffffffff1660e01b81526004016122719190612ff3565b602060405180830381865afa15801561228e573d6000803e3d6000fd5b505050506040513d601f19601f820116820180604052508101906122b291906136be565b905060006122be610e41565b9050600081836122ce91906131b3565b905083811015612311578093507f9fd40b777a67006201b62c0025adca7fed13f4f97a8c97e859b02a025adad78f60405161230890613b93565b60405180910390a15b600160009054906101000a900473ffffffffffffffffffffffffffffffffffffffff1673ffffffffffffffffffffffffffffffffffffffff1663a9059cbb33866040518363ffffffff1660e01b815260040161236e929190613bb3565b6020604051808303816000875af115801561238d573d6000803e3d6000fd5b505050506040513d601f19601f820116820180604052508101906123b19190613970565b506000600560008b815260200190815260200160002060060160003373ffffffffffffffffffffffffffffffffffffffff1673ffffffffffffffffffffffffffffffffffffffff16815260200190815260200160002081905550600260009054906101000a900473ffffffffffffffffffffffffffffffffffffffff1673ffffffffffffffffffffffffffffffffffffffff1663a9059cbb600460009054906101000a900473ffffffffffffffffffffffffffffffffffffffff16886040518363ffffffff1660e01b815260040161248a929190613bb3565b6020604051808303816000875af11580156124a9573d6000803e3d6000fd5b505050506040513d601f19601f820116820180604052508101906124cd9190613970565b5060008511612511576040517f08c379a000000000000000000000000000000000000000000000000000000000815260040161250890613c93565b60405180910390fd5b600260009054906101000a900473ffffffffffffffffffffffffffffffffffffffff1673ffffffffffffffffffffffffffffffffffffffff1663a9059cbb33876040518363ffffffff1660e01b815260040161256e929190613bb3565b6020604051808303816000875af115801561258d573d6000803e3d6000fd5b505050506040513d601f19601f820116820180604052508101906125b19190613970565b5084866125be9190613229565b600560008b815260200190815260200160002060050160008282546125e391906131b3565b925050819055506000600560008b815260200190815260200160002060070160003373ffffffffffffffffffffffffffffffffffffffff1673ffffffffffffffffffffffffffffffffffffffff16815260200190815260200160002060006101000a81548160ff0219169083151502179055506001600560008b8152602001908152602001600020600c01600082825461267d91906131b3565b9250508190555042600560008b815260200190815260200160002060090160003373ffffffffffffffffffffffffffffffffffffffff1673ffffffffffffffffffffffffffffffffffffffff168152602001908152602001600020819055507fc2af4912016acefa1911d5321e5f44658214ece74741a1bd267525dec7f309ae3342878961270b9190613229565b8760405161271c9493929190613bdc565b60405180910390a15050505050505b5b505050565b60006005600084815260200190815260200160002060060160008373ffffffffffffffffffffffffffffffffffffffff1673ffffffffffffffffffffffffffffffffffffffff16815260200190815260200160002054905092915050565b600060056000838152602001908152602001600020600b0160009054906101000a900460ff169050919050565b600460009054906101000a900473ffffffffffffffffffffffffffffffffffffffff1681565b6127ea612a1f565b8060056000848152602001908152602001600020600401819055505050565b600160009054906101000a900473ffffffffffffffffffffffffffffffffffffffff1681565b6007818154811061283f57600080fd5b906000526020600020016000915090505481565b61285b612a1f565b8060088190555050565b600060056000838152602001908152602001600020600101549050919050565b61288d612a1f565b600073ffffffffffffffffffffffffffffffffffffffff168173ffffffffffffffffffffffffffffffffffffffff16036128fc576040517f08c379a00000000000000000000000000000000000000000000000000000000081526004016128f390613d25565b60405180910390fd5b61290581612a9d565b50565b600560205280600052604060002060009150905080600001805461292b906133c6565b80601f0160208091040260200160405190810160405280929190818152602001828054612957906133c6565b80156129a45780601f10612979576101008083540402835291602001916129a4565b820191906000526020600020905b81548152906001019060200180831161298757829003601f168201915b50505050509080600101549080600201549080600301549080600401549080600501549080600b0160009054906101000a900460ff169080600b0160019054906101000a900460ff169080600c0154905089565b612a00612a1f565b8060056000848152602001908152602001600020600101819055505050565b612a27612b61565b73ffffffffffffffffffffffffffffffffffffffff16612a45611adf565b73ffffffffffffffffffffffffffffffffffffffff1614612a9b576040517f08c379a0000000000000000000000000000000000000000000000000000000008152600401612a9290613d91565b60405180910390fd5b565b60008060009054906101000a900473ffffffffffffffffffffffffffffffffffffffff169050816000806101000a81548173ffffffffffffffffffffffffffffffffffffffff021916908373ffffffffffffffffffffffffffffffffffffffff1602179055508173ffffffffffffffffffffffffffffffffffffffff168173ffffffffffffffffffffffffffffffffffffffff167f8be0079c531659141344cd1fd0a4f28419497f9722a3daafe3b4186f6b6457e060405160405180910390a35050565b600033905090565b6000604051905090565b600080fd5b600080fd5b6000819050919050565b612b9081612b7d565b8114612b9b57600080fd5b50565b600081359050612bad81612b87565b92915050565b600060208284031215612bc957612bc8612b73565b5b6000612bd784828501612b9e565b91505092915050565b612be981612b7d565b82525050565b6000604082019050612c046000830185612be0565b612c116020830184612be0565b9392505050565b6000602082019050612c2d6000830184612be0565b92915050565b600080fd5b600080fd5b6000601f19601f8301169050919050565b7f4e487b7100000000000000000000000000000000000000000000000000000000600052604160045260246000fd5b612c8682612c3d565b810181811067ffffffffffffffff82111715612ca557612ca4612c4e565b5b80604052505050565b6000612cb8612b69565b9050612cc48282612c7d565b919050565b600067ffffffffffffffff821115612ce457612ce3612c4e565b5b612ced82612c3d565b9050602081019050919050565b82818337600083830152505050565b6000612d1c612d1784612cc9565b612cae565b905082815260208101848484011115612d3857612d37612c38565b5b612d43848285612cfa565b509392505050565b600082601f830112612d6057612d5f612c33565b5b8135612d70848260208601612d09565b91505092915050565b600080600080600060a08688031215612d9557612d94612b73565b5b600086013567ffffffffffffffff811115612db357612db2612b78565b5b612dbf88828901612d4b565b9550506020612dd088828901612b9e565b9450506040612de188828901612b9e565b9350506060612df288828901612b9e565b9250506080612e0388828901612b9e565b9150509295509295909350565b600073ffffffffffffffffffffffffffffffffffffffff82169050919050565b6000819050919050565b6000612e55612e50612e4b84612e10565b612e30565b612e10565b9050919050565b6000612e6782612e3a565b9050919050565b6000612e7982612e5c565b9050919050565b612e8981612e6e565b82525050565b6000602082019050612ea46000830184612e80565b92915050565b60008060408385031215612ec157612ec0612b73565b5b6000612ecf85828601612b9e565b9250506020612ee085828601612b9e565b9150509250929050565b6000612ef582612e5c565b9050919050565b612f0581612eea565b82525050565b6000602082019050612f206000830184612efc565b92915050565b6000612f3182612e10565b9050919050565b612f4181612f26565b8114612f4c57600080fd5b50565b600081359050612f5e81612f38565b92915050565b60008060408385031215612f7b57612f7a612b73565b5b6000612f8985828601612f4f565b9250506020612f9a85828601612b9e565b9150509250929050565b60008060408385031215612fbb57612fba612b73565b5b6000612fc985828601612b9e565b9250506020612fda85828601612f4f565b9150509250929050565b612fed81612f26565b82525050565b60006020820190506130086000830184612fe4565b92915050565b60008115159050919050565b6130238161300e565b82525050565b600060208201905061303e600083018461301a565b92915050565b60006020828403121561305a57613059612b73565b5b600061306884828501612f4f565b91505092915050565b600081519050919050565b600082825260208201905092915050565b60005b838110156130ab578082015181840152602081019050613090565b60008484015250505050565b60006130c282613071565b6130cc818561307c565b93506130dc81856020860161308d565b6130e581612c3d565b840191505092915050565b600061012082019050818103600083015261310b818c6130b7565b905061311a602083018b612be0565b613127604083018a612be0565b6131346060830189612be0565b6131416080830188612be0565b61314e60a0830187612be0565b61315b60c083018661301a565b61316860e083018561301a565b613176610100830184612be0565b9a9950505050505050505050565b7f4e487b7100000000000000000000000000000000000000000000000000000000600052601160045260246000fd5b60006131be82612b7d565b91506131c983612b7d565b92508282039050818111156131e1576131e0613184565b5b92915050565b60006131f282612b7d565b91506131fd83612b7d565b925082820261320b81612b7d565b9150828204841483151761322257613221613184565b5b5092915050565b600061323482612b7d565b915061323f83612b7d565b925082820190508082111561325757613256613184565b5b92915050565b7f4e487b7100000000000000000000000000000000000000000000000000000000600052601260045260246000fd5b600061329782612b7d565b91506132a283612b7d565b9250826132b2576132b161325d565b5b828204905092915050565b60006132c882612b7d565b91507fffffffffffffffffffffffffffffffffffffffffffffffffffffffffffffffff82036132fa576132f9613184565b5b600182019050919050565b7f4150592063616e206f6e6c79206265206265747765656e20312520616e64203160008201527f3030302500000000000000000000000000000000000000000000000000000000602082015250565b600061336160248361307c565b915061336c82613305565b604082019050919050565b6000602082019050818103600083015261339081613354565b9050919050565b7f4e487b7100000000000000000000000000000000000000000000000000000000600052602260045260246000fd5b600060028204905060018216806133de57607f821691505b6020821081036133f1576133f0613397565b5b50919050565b60008190508160005260206000209050919050565b60006020601f8301049050919050565b600082821b905092915050565b6000600883026134597fffffffffffffffffffffffffffffffffffffffffffffffffffffffffffffffff8261341c565b613463868361341c565b95508019841693508086168417925050509392505050565b600061349661349161348c84612b7d565b612e30565b612b7d565b9050919050565b6000819050919050565b6134b08361347b565b6134c46134bc8261349d565b848454613429565b825550505050565b600090565b6134d96134cc565b6134e48184846134a7565b505050565b5b81811015613508576134fd6000826134d1565b6001810190506134ea565b5050565b601f82111561354d5761351e816133f7565b6135278461340c565b81016020851015613536578190505b61354a6135428561340c565b8301826134e9565b50505b505050565b600082821c905092915050565b600061357060001984600802613552565b1980831691505092915050565b6000613589838361355f565b9150826002028217905092915050565b6135a282613071565b67ffffffffffffffff8111156135bb576135ba612c4e565b5b6135c582546133c6565b6135d082828561350c565b600060209050601f83116001811461360357600084156135f1578287015190505b6135fb858261357d565b865550613663565b601f198416613611866133f7565b60005b8281101561363957848901518255600182019150602085019450602081019050613614565b868310156136565784890151613652601f89168261355f565b8355505b6001600288020188555050505b505050505050565b60006060820190506136806000830186612be0565b818103602083015261369281856130b7565b90506136a16040830184612be0565b949350505050565b6000815190506136b881612b87565b92915050565b6000602082840312156136d4576136d3612b73565b5b60006136e2848285016136a9565b91505092915050565b7f506f6f6c20646f6573206e6f7420657869737400000000000000000000000000600082015250565b600061372160138361307c565b915061372c826136eb565b602082019050919050565b6000602082019050818103600083015261375081613714565b9050919050565b7f5374616b696e6720696e207468697320706f6f6c2069732063757272656e746c60008201527f79205061757365642e20506c6561736520636f6e746163742061646d696e0000602082015250565b60006137b3603e8361307c565b91506137be82613757565b604082019050919050565b600060208201905081810360008301526137e2816137a6565b9050919050565b7f596f752063757272656e746c7920686176652061207374616b6520696e20746860008201527f697320706f6f6c2e20596f75206861766520746f20556e7374616b652e000000602082015250565b6000613845603d8361307c565b9150613850826137e9565b604082019050919050565b6000602082019050818103600083015261387481613838565b9050919050565b7f7374616b6528293a20596f752061726520747279696e6720746f207374616b6560008201527f2062656c6f7720746865206d696e696d756d20666f72207468697320706f6f6c602082015250565b60006138d760408361307c565b91506138e28261387b565b604082019050919050565b60006020820190508181036000830152613906816138ca565b9050919050565b60006060820190506139226000830186612fe4565b61392f6020830185612fe4565b61393c6040830184612be0565b949350505050565b61394d8161300e565b811461395857600080fd5b50565b60008151905061396a81613944565b92915050565b60006020828403121561398657613985612b73565b5b60006139948482850161395b565b91505092915050565b60006060820190506139b26000830186612fe4565b6139bf6020830185612be0565b6139cc6040830184612be0565b949350505050565b60006040820190506139e96000830185612be0565b6139f6602083018461301a565b9392505050565b7f596f752063757272656e746c792068617665206e6f207374616b6520696e207460008201527f68697320706f6f6c2e0000000000000000000000000000000000000000000000602082015250565b6000613a5960298361307c565b9150613a64826139fd565b604082019050919050565b60006020820190508181036000830152613a8881613a4c565b9050919050565b7f5265776172647320697320746f6f20736d616c6c20746f20626520636c61696d60008201527f6564000000000000000000000000000000000000000000000000000000000000602082015250565b6000613aeb60228361307c565b9150613af682613a8f565b604082019050919050565b60006020820190508181036000830152613b1a81613ade565b9050919050565b7f536f727279207468657265206973206e6f206d6f726520726577617264206c6560008201527f667420696e207468697320436f6e747261637400000000000000000000000000602082015250565b6000613b7d60338361307c565b9150613b8882613b21565b604082019050919050565b60006020820190508181036000830152613bac81613b70565b9050919050565b6000604082019050613bc86000830185612fe4565b613bd56020830184612be0565b9392505050565b6000608082019050613bf16000830187612fe4565b613bfe6020830186612be0565b613c0b6040830185612be0565b613c186060830184612be0565b95945050505050565b7f636c61696d61626c652062616c616e6365206d7573742062652067726561746560008201527f72207468616e20302e0000000000000000000000000000000000000000000000602082015250565b6000613c7d60298361307c565b9150613c8882613c21565b604082019050919050565b60006020820190508181036000830152613cac81613c70565b9050919050565b7f4f776e61626c653a206e6577206f776e657220697320746865207a65726f206160008201527f6464726573730000000000000000000000000000000000000000000000000000602082015250565b6000613d0f60268361307c565b9150613d1a82613cb3565b604082019050919050565b60006020820190508181036000830152613d3e81613d02565b9050919050565b7f4f776e61626c653a2063616c6c6572206973206e6f7420746865206f776e6572600082015250565b6000613d7b60208361307c565b9150613d8682613d45565b602082019050919050565b60006020820190508181036000830152613daa81613d6e565b905091905056fea2646970667358221220e6cfeeecaeeba0a7f09cacf48854601bc715f72ae67b0302a7136adddb6a1d7764736f6c63430008120033",
  "linkReferences": {},
  "deployedLinkReferences": {}
}